1-2		 3-4-5			   			   6	     		   7		 8-9		   10							 11					12								13						14						15					 16						  17-18					    19							 20-21			     22									 23						 24					  25-26-27-28

AJCZ618  20220516ARPICK UP             VOLKSWAGEN          AMAROK 2.02010GRIS      CDC014179                     8AWDB42H9BA011378                                                                                                       LIMA 2600                CRIA 19º DCIA 1322 P.A 20FISCALIA EN TUR               2022051600000000                                                                                     0000000021202305171                                                                                                                                                                       
MA127EUB 20220516ARMOTOCICLETA         MOTOMEL 110 CC.     B 110 CC. 2020GRIS      L010473                       8ELM15110LB010473                                                                                                       AYACUCHO Y PASCO         CRIA 5º DCIA 1222 P.A 204FISCALIA EN TUR               2022051600000000                                                                                     0000000021202305171                                                                                                                                                                       
MA140WXF 20220516ARMOTOCICLETA         KELLER              KN110-8   2021AZUL      KN152FMHL0006311              8E71CDA70M0007406                                                                                                       COCHABAMBA 42 BIS        CRIA 5º DCIA 1226 P.A 204FISCALIA EN TUR               2022051600000000                                                                                     0000000021202305171                                                                                                                                                                       
MA113OFJ 20220516ARMOTOCICLETA         BRAVA               NEVADA 1102020GRIS Y NEGRW152FMH17009492              8DYC1107DJV073837                                                                                                       MONTEVIDEO 3349          CRIA 7º DCIA 1260 P.A 204FISCALIA EN TUR               2022051600000000                                                                                     0000000021202305171                                                                                                                                                                       
AMIU880  20220516ARSEDAN 4 PUERTAS     CHEVROLET           CLASSIC 4 2013GRIS OSCURT85149609                     8AGSE1950DR181317                                                                                                       CALLE 2 Nº 367 G.BAIGORRICRIA 24º DCIA 1192 P.A 20FISCALIA EN TUR               2022051600000000                                                                                     0000000021202305171                                                                                                                                                                       
MA141YNY 20220516ARMOTOCICLETA         MOTOMEL 110 CC.     B 110 CC. 2021BLANCO    M027913                       8ELM15110MB027913                                                                                                       FRENCH 500               CRIA 9º DCIA 732 P.A 2050FISCALIA EN TUR               2022051600000000                                                                                     0000000021202305171                                                                                                                                                                       
MA098SKU 20220516ARMOTOCICLETA         HONDA WAVE          WAVE      2019NEGRO     JA37E3871567                  8CHJA5000KP000668                                                                                                       SANCHEZ GRANEL Y LAGUNA  SUB CRIA 2º DCIA 598 P.A FISCALIA EN TUR               2022051600000000                                                                                     0000000021202305171                                                                                                                                                                       
M561IQM  20220516ARMOTOCICLETA         YAMAHA              YBR 125   2012ROJO      E3H6E004338                   8C6KE1693C0004763                                                                                                       SAN MARTIN 800 GRAL LAGOSSUB CRIA 13º DCIA 142 P.AFISCALIA EN TUR               2022051600000000                                                                                     0000000021202305171                                                                                                                                                                       
MA130UQN 20220516ARMOTO                GUERRERO            G100  TRIP2021CABINA GRIAD1P52FMIM0015411             8A2XCJLH0LA002014                                                                                                       PARQUE DEL SUR           SECCIONAL 1 URI          FISC EN TURNO 1               2022051600000000                                                                                     0000000021202305171                                                                                                                                                                       
MA023YSF 20220516ARMOTOCICLETA         YAMAHA              YBR 125 CC2017NEGRO     E3H6E112677                   8C6RE2211G0010023                                                                                                       JUAN JOSE PASO Y NICARAGUCRIA 20º DCIA 2600 P.A 20FISCALIA EN TUR               2022051600000000                                                                                     0000000021202305171                                                                                                                                                                       
MA076LAM 20220516ARMOTOCICLETA         YAMAHA              T110      2018BLANCO Y NE3L6E285877                   8C6KE1977H0036584                                                                                                       IBARLUCEA 224 G.BAIGORRIACRIA 24º DCIA 1338 P.A 20FISCALIA EN TUR               2022051600000000                                                                                     0000000021202305171                                                                                                                                                                       
MA102SSY 20220516ARMOTO                GILERA              SMASH     2019AZUL      AD1P50FMHJ0213243             8CXSMASHFKVC04009                                                                                                       SAAVEDRA Y MORENO        SECCIONAL 2 URI          FISC EN TURNO 1               2022051600000000                                                                                     0000000021202305171                                                                                                                                                                       
M537LHJ  20220516ARMOTO                HONDA               CG        2015SIN DATOS KC08E2G155726                 8CHKC2110GL004195                                                                                                       25 DE MAYO 8043          SECCIONAL 8 URI          FISC EN TURNO 1               2022051600000000                                                                                     0000000021202305171                                                                                                                                                                       
M959EDD  20220516ARMOTO                GUERRERO            G100  TRIP2008AZUL      147FM42008004219              LAAXCBLAX80003291                                                                                                       SERVANDO BAYO Y JR MENDEZSUBCRIA 14 URI           FISC EN TURNO 1               2022051600000000                                                                                     0000000021202305171                                                                                                                                                                       
MA052RMR 20220516ARMOTO                CORVEN              110 CC.   2017AZUL      1P52FMHH8136411               8CVXCH2G7HA183596                                                                                                       PIEDRAS 8085             SECCIONAL 8 URI          FISC EN TURNO 1               2022051600000000                                                                                     0000000021202305171                                                                                                                                                                       
MA116ZSD 20220516ARMOTO                GILERA              SMASH     2020ROJO      AD1P52FMHL0010266             8CXSMASHSLNS03298                                                                                                       SAAVEDRA Y MORENO        SECCIONAL 2 URI          FISC EN TURNO 1               2022051600000000                                                                                     0000000021202305171                                                                                                                                                                       
MA107MKM 20220516ARMOTO                HONDA               WAVE      2019NEGRO     JA37E3876951                  8CHJA3700KP015861                                                                                                       CORRIENTES Y SAN JOSE    SECCIONAL 2 URI          FISC EN TURNO 1               2022051600000000                                                                                     0000000021202305171                                                                                                                                                                       
M638JVN  20220516ARMOTO                HONDA               CBX 250   2013NEGRO     MC35ED333971                  8CHMC3500DP009208                                                                                                       1 DE MAYO Y SUIPACHA     SECCIONAL 1 URI          FISC EN TURNO 1               2022051600000000                                                                                     0000000021202305171                                                                                                                                                                       
MA114QSC 20220516ARMOTO                HONDA               WAVE      2020BLANCO    JA37E3909979                  8CHJA5000LP001319                                                                                                       AV FREYE 2765            SECCIONAL 4 URI          FISC EN TURNO 1               2022051600000000                                                                                     0000000021202305171                                                                                                                                                                       
MA115YXR 20220516ARMOTO                HONDA               WAVE      2020NEGRO     JA37E3913938                  8CHJA3700LP017290                                                                                                       LA RIOJA 2839            SECCIONAL 1 URI          FISC EN TURNO 1               2022051600000000                                                                                     0000000021202305171                                                                                                                                                                       
M140CHH  20220516ARMOTOCICLETA         YAMAHA              CRYPTON   2001NEGRO     4ST438264                     MH34ST0011K282564                                                                                                       EVA PERON 7265 ENTRE BRASCTD NRO 3 ROSARIO        NN             ///////////////2022051600000000                                                                                     0000000021202305171                                                                                                                                                                       
MA117PWC 20220516ARMOTOCICLETA         HONDA               SIN DATOS 2020ROJO Y BLAMD34EL003177                  8CHMD3410LP004232                                                                                                       VERA MUJICA Nº 1061      CRIA 7º DCIA 1262 PA. 205FISCALIA EN TUR               2022051600000000                                                                                     0000000021202305171                                                                                                                                                                       
MA014CBL 20220516ARMOTO                YAMAHA              YBR 125   2016ROJO Y NEGE3H6E108516                   8C6RE2217G0008180                                                                                                       BONEO 4073               SECCIONAL 10 URI         FISC EN TURNO 1               2022051600000000                                                                                     0000000021202305171                                                                                                                                                                       
ABON171  20220516ARSEDAN 3 PUERTAS     VOLKSWAGEN          GOL CLD   1997BORDO     BEA019104                     8AWZZZ377VA904398                                                                                                       SUIPACHA 2900            CTD NRO 1 ROSARIO        CENTRO JUSTICIA///////////////2022051600000000                                                                                     0000000021202305171                                                                                                                                                                       
MA121SEA 20220516ARMOTO                GILERA              SMASH     2020AZUL      AD1P52FMHJ0034237             8CXSMASHSKVS02937                                                                                                       LUCIANO TORRENT Y SAN MARSECCIONAL 11 URI         FISC EN TURNO 1               2022051600000000                                                                                     0000000021202305171                                                                                                                                                                       
MA060KAW 20220516ARMOTOVEHICULO        BAJAJ               ROUSER    2018BLANCA Y GJLYCHC56442                   8CVA36FZ1HA029097                                                                                                       CIRCUNV. Y AUT ROS- BS ASCRIA 30 D/664 PA 2058 INSFISCALIA EN TUR               2022051600000000                                                                                     0000000021202305171                                                                                                                                                                       
M        20220516ARMOTOVEHICULO        KELLER              SIN DATOS 2022ROJA      M0021672                      8E71CDA76N0015544                                                                                                       OCAMPO Y PARAGUAY        CRIA 5 D/1233 PA 2060SOF FISCALIA EN TUR               2022051600000000                                                                                     0000000021202305171                                                                                                                                                                       
ASMA243  20220516ARPICK UP             FORD                F100      1981ROJO      ABAD49386                     KA1JAB42716                                                                                                             MENDOZA 100              CRIA 2 D/2825 PA 2061 OF FISCALIA EN TUR               2022051600000000                                                                                     0000000021202305171                                                                                                                                                                       
AAE273ZN 20220516ARAUTOMOVIL           RENAULT             SANDERO   2020GRIS      H4MJ759Q020718                93Y5SRXDYLJ376835                                                                                                       MENDOZA 3253             CRIA 7 D/1251 PA 2062 OF FISCALIA EN TUR               2022051600000000                                                                                     0000000021202305171                                                                                                                                                                       
M043KSU  20220516ARMOTOVEHICULO        GUERRERO            G110 TRIP 2014AZUL      AD1P52FMHE0015579             8A2XCHLL9EA073566                                                                                                       VENADO TUERTO            COMISARIA SEGUNDA        MPA VDO. TTO.                 2022051600000000                                                                                     0000000021202305171                                                                                                                                                                       
MA140DBE 20220516ARMOTOCICLETA         MOTOMEL             B 110     2021BLANCO Y GM036580                       8ELM15110MB036580                                                                                                       QUINTANA Y FRANCIA       CTD NRO. 2 ROSARIO       CENTRO DE JUSTIDE TURNO       2022051600000000                                                                                     0000000021202305171                                                                                                                                                                       
AVPM185  20220516ARSEDAN 4 PUERTAS     PEUGEOT             404       1969VERDE CLAR62990                         3042132                                                                                                                 MONTEVIDEO 4720          CTD N° 1 ROSARIO         CENTRO JUSTICIADE TURNO       2022051600000000                                                                                     0000000021202305171                                                                                                                                                                       
ADSH557  20220516ARSEDAN 3 PUERTAS     FORD                KA        2001BLANCO    C4DY705884                    9BFBSZGDAYB705884                                                                                                       JOSE MARIA ROSA 2747 BIS CTD NRO. 5 RONDEU        CENTRO DE JUSTIDE TURN        2022051600000000                                                                                     0000000021202305171                                                                                                                                                                       
MA128NDE 20220516ARMOTOVEHICULO        HONDA               WAVE      2020NEGRA     JA37E3502598                  8CHJA5010MP001717                                                                                                       9 DE JULIO Y MONTEVIDEO  CRIA 2 D/2831 PA 2065 INSFISCALIA EN TUR               2022051600000000                                                                                     0000000021202305171                                                                                                                                                                       
MA010LIV 20220517ARMOTO                MOTOMEL             110 CC.   2016SIN DATOS G041236                       8ELM15110GB041236                                                                                                       PONCE DE LEON 8115       SUBCRIA 12 URI           FISC EN TURNO 1               2022051700000000                                                                                     0000000021202305171                                                                                                                                                                       
MA011IMB 20220517ARMOTO                HONDA               CG        2016AZUL      KC08E2G164381                 8CHKC2110GL015221                                                                                                       V SARSFIELD /ALBERDI /URUCRIA DTTO 23 URI         FISC EN TURNO 1               2022051700000000                                                                                     0000000021202305171                                                                                                                                                                       
M677GGO  20220517ARMOTO                MOTOMEL             110 CC.   2010NEGRO     A009326                       8ELM15110AB009326                                                                                                       URQUIZA Y SGO DEL ESTERO SECCIONAL 4 URI          FISC EN TURNO 1               2022051700000000                                                                                     0000000021202305171                                                                                                                                                                       
MA109EGU 20220517ARMOTO                MOTOMEL             150 CC    2019ROJO      J007574                       8ELM31150JB007574                                                                                                       FACUNDO QUIROGA AL 100   DTO RECREO SUR URI       FISC EN TURNO 1               2022051700000000                                                                                     0000000021202305171                                                                                                                                                                       
MA147JTX 20220517ARMOTO                GILERA              SMASH     2021BLANCO    AD1P52FMHM0057672             8CXSMASHSMNS27164                                                                                                       CHICLANA Y AZCUENAGA     SECCIONAL 10 URI         FISC EN TURNO 1               2022051700000000                                                                                     0000000021202305171                                                                                                                                                                       
AEZN699  20220517ARAUTOMOVIL           VOLKSWAGEN          GOL 1.6   2005GRIS      UNF327742                     9BWCB05X85T156487                                                                                                       CAMPICHUELO 2171         CRIA 12º DCIA 783 P.A 206FISCALIA EN TUR               2022051700000000                                                                                     0000000021202305171                                                                                                                                                                       
ABHT010  20220517ARAUTOMOVIL           FORD KA             KA        1997BORDO     J4HVU00850                    9BFZZZGDAVB000850                                                                                                       PJE SAN JERONIMO 44 BIS  CRFIA 12º DCIA 782 P.A 20FISCALIA EN TUR               2022051700000000                                                                                     0000000021202305171                                                                                                                                                                       
AFBD456  20220517ARPICK UP             CHEVROLET           S10 2.8 TI2005GRIS      M1T221382                     9BG138AC05C431625                                                                                                       CALLE 11 Nº 2318 G.BAIGORCRIA 24º DCIA 1206 P.A 20FISCALIA EN TUR               2022051700000000                                                                                     0000000021202305171                                                                                                                                                                       
M784EDM  20220517ARMOTOCICLETA         YAMAHA              CRYPTON   2008ROJO      5AV829619                     LAPXCHLA080020738                                                                                                       RUTA 34 Y CALDERON       SUB CRIA 2º DCIA 603 P.A FISCALIA EN TUR               2022051700000000                                                                                     0000000021202305171                                                                                                                                                                       
AEDB354  20220517ARSEDAN 5 PUERTAS     PEUGEOT             206 XR CON2003CELESTE   10FSF94212649                 8AD2AKFWU2W051521                                                                                                       CORRIENTES Y AMEGHINO    CRIA 15º DCIA 2135 P.A 20FISCALIA EN TUR               2022051700000000                                                                                     0000000021202305171                                                                                                                                                                       
MA060UNP 20220517ARMOTOCICLETA         BENELLI             NO ESPECIF2017ROJO      BJ157FMJB75002605             8ELB01AGAHB084097                                                                                                       PJE 1756 Nº 2070         CRIA 32º DCIA  1207 P.A 2FISCALIA EN TUR               2022051700000000                                                                                     0000000021202305171                                                                                                                                                                       
MA062SFV 20220517ARMOTOCICLETA         KELLER              KN110-8   2017AZUL      KN152FMHJ0009463              8E71CDA7XJ0012205                                                                                                       JUNIN 501                CRIA 9º DCIA 722 P.A 2074FISCALIA EN TUR               2022051700000000                                                                                     0000000021202305171                                                                                                                                                                       
M014LFM  20220517ARMOTOCICLETA         HONDA               XR 150 L  2015BLANCA    KD07E2161728                  8CHKD0900GL004044                                                                                                       MENDOZA 3253             CRIA 7º DCIA 1273 P.A 207FISCALIA EN TUR               2022051700000000                                                                                     0000000021202305171                                                                                                                                                                       
M271CRV  20220517ARMOTOCICLETA         HONDA WAVE          WAVE      2006VERDE     SDH150FMG255193957            LTMPCGB2455194270                                                                                                       COLOMBIA 1235 BIS        CRIA 20º DCIA 572 P.A 207FISCALIA EN TUR               2022051700000000                                                                                     0000000021202305171                                                                                                                                                                       
AAWC133  20220517ARAUTOMOVIL           FIAT UNO            UNO       1996BLANCO    159A30388308929               8AS146000T5247424                                                                                                       CENTENARIO 80 BIS        CRIA 15º DCIA 2136 P.A 20FISCALIA EN TUR               2022051700000000                                                                                     0000000021202305171                                                                                                                                                                       
M450GHX  20220517ARMOTO                ZANELLA             150 CC    2010ROJO Y BOR161FMJA1183601                8A6PCKD0ZAS001681                                                                                                       PJE BAIGORRIA 3676       SECCIONAL 2 URI          FISC EN TURNO 1               2022051700000000                                                                                     0000000021202305171                                                                                                                                                                       
M018LGQ  20220517ARMOTOCICLETA         ZANELLA             ZB 110 CC.2015BLANCO    1P52FMHF1274624               8A6MBSCACFC802437                                                                                                       MAIPU 016                CRIA. 5TA. U.R. XVII     FISCALIA REGION               2022051700000000                                                                                     0000000021202305171                                                                                                                                                                       
AEDG358  20220517ARAUTOMOVIL           RENAULT             SCENIC    2003VERDE CLARF9QA736C278188                93YJAMN353J416338                                                                                                       BUENOS AIRES AL 200      CRIA. 1RA. U.R. XVII     FISCALIA REGION               2022051700000000                                                                                     0000000021202305171                                                                                                                                                                       
MA073SSJ 20220517ARMOTOCICLETA         GUERRERO            G 110CC TR2018NEGRO     AD1P52FMHJ0056461             8A2XCHLM6HA112658                                                                                                       AV. SAN MARTIN Y DR. GHIOCRIA. 1RA. U.R. XVII     FISCALIA REGION               2022051700000000                                                                                     0000000021202305171                                                                                                                                                                       
MA022CJN 20220517ARMOTOCICLETA         MOTOMEL             B 110 CC. 2016BLANCO    G052363                       8ELM15110GB052363             GARBIN JORGELINA ALEJANDR3476-640112    SANTIAGO DEL ESTERO 1882                          SANTIAGO DEL ESTERO 1882 CRIA. 1RA. U.R. XVII     FISCALIA REGION               2022051700000000                                                                                     0000000021202305171                                                                                                                                                                       
MA027SWV 20220517ARMOTOCICLETA         GUERRERO            G 110CC TR2017BLANCO    AD1P52FMHH0034920             8A2XCHLLXHA095936                                                                                                       SAN CARLOS Y RICHIERI    CRIA. 1RA. U.R. XVII     FISCALIA REGION               2022051700000000                                                                                     0000000021202305171                                                                                                                                                                       
ALXS518  20220517ARAUTOMOVIL           RENAULT             FLUENCE 2.2012GRIS OSCURK4MV838R082012                8A1LZB115DL520376                                                                                                       SAN MARTIN Y YAPEYU      CRIA 29 URII DCIA 349 INSFISCALIA FLAGRA               2022051700000000                                                                                     0000000021202305171                                                                                                                                                                       
AFPX954  20220517ARAUTOMOVIL           PEUGEOT             307 XS 2.02006GRIS      10LH3T1281558                 8AD3CRFNL5G317550                                                                                                       PJE TIZCORNIA 2974       DEST 14 URII DCIA 74 CRIOFISCALIA FLAGRA               2022051700000000                                                                                     0000000021202305171                                                                                                                                                                       
MA139YRK 20220517ARMOTOCICLETA         GUERRERO            G 110 DL. 2021NEGRA     LC1P50FMH08046656             8A2XCHLZ2BA009918                                                                                                       PROVINCIAS UNIDAS 177    CRIA 14 URII DCIA 720 SOFFISCALIA FLAGRA               2022051700000000                                                                                     0000000021202305171                                                                                                                                                                       
MA042JMW 20180607ARMOTOCICLETA         ZANELLA             ZB 110 D. 2017NEGRO     LF1P52FMHH1298510             8A6XCGB04JA500238                                                                                                       JOSE INGENIEROS 375      CRIA 29ª DCIA Nº492 S OF FISCALIA FLAGRA               2018060720220516LF1P52FMHH1298510             8A6XCGB04JA500238             CRIA 29ª DCIA Nº492 S OF 2022051621202305171                                                                                                                                                                       
M756JNO  20180621ARMOTOCICLETA         GUERRERO            G 110 TRIP2015NEGRA     KT1P52FMHD0007553             8A2XCHLM8DA073159                                                                                                       CALLE MITRE Y OBLIGADO   COMISARIA I UR IX        FISCALIA RECONQ               2018062120220517KT1P52FMHD0007553             8A2XCHLM8DA073159             COMISARIA I UR IX        2022051721202305171                                                                                                                                                                       
AHPR517  20181126ARAUTOMOVIL           TOYOTA COLORA XEI 2.COROLLA   2008NEGRO     1ZZ4798754                    9BRBA48E795029694             FONTANA, CEFERINO ADAN   NO POSEE       MAIPU N° 1833                                     VILLA CONSTITUCION       CRIA 1° U.R.VI           M.P.A                         20181126202205161ZZ4798754                    9BRBA48E795029694             CRIA 1° U.R.VI           2022051621202305171                                                                                                                                                                       
M539DQJ  20220407ARMOTOCICLETA         MOTOMEL             C110      2008NEGRA     6047500                       8ELM021106B047500                                                                                                       ENTRE RIOS 3840          CRIA 15 OF SARACHO DCIA 1TURNO                         20220407202205166047500                       8ELM021106B047500             CRIA 15 OF SARACHO DCIA 12022051621202305171                                                                                                                                                                       
MA150QWJ 20220410ARMOTOCICLETA         HONDA               TWISTER   2022AZUL      MC48E0N251306                 8CHMC5000NP001032                                                                                                       ESPAÑA 1214              CRIA 2 OF CORREA DCIA 197TURNOO                        2022041020220516MC48E0N251306                 8CHMC5000NP001032             CRIA 2 OF CORREA DCIA 1972022051621202305171                                                                                                                                                                       
MA099VZU 20220414ARMOTOVEHICULO        CORVEN              ENERGY 1102019BORDO     1P52FMHJ2043741               8CVXCH2GXKA239442                                                                                                       DORREGO Y RICHIERI       CRIA 1 UR XVII D/1005 PA FISCALIA EN TUR               20220414202205161P52FMHJ2043741               8CVXCH2GXKA239442             CRIA 1 UR XVII D/1005 PA 2022051621202305171                                                                                                                                                                       
AAF216YD 20220503ARSEDAN 5 PUERTAS     PEUGEOT             SIN DATOS 2022AZUL      10PRAP0000668                 8ADUWNFPANG546293                                                                                                       MITRE Y BOMBEROS VOLUNTARCRIA 26º UR II DCIA 386 SFLAGRANCIA EN T               202205032022051610PRAP0000668                 8ADUWNFPANG546293             CRIA 26º UR II DCIA 386 S2022051621202305171                                                                                                                                                                       
M716KKV  20220504ARMOTOCICLETA         HONDA               400 CC.   2014NEGRO     ND07EE700156                  8CHND0710EP000061                                                                                                       SAN LORENZO 879          CRIA 2º DCIA 2795 P.A 184FISCALIA EN TUR               2022050420220516ND07EE700156                  8CHND0710EP000061             CRIA 2º DCIA 2795 P.A 1842022051621202305171                                                                                                                                                                       
M117CVP  20220504ARMOTOCICLETA         GUERRERO            CG125 QUEE2006NEGRA     157FMI06031195                LAAACJLR760007947                                                                                                       CALDERON Y FORNIER       SUBCRIA 2 SOF VELAZCO DCITURNO                         2022050420220516157FMI06031195                LAAACJLR760007947             SUBCRIA 2 SOF VELAZCO DCI2022051621202305171                                                                                                                                                                       
ANHX328  20220506ARAUTOMOVIL           FORD                ECOSPORT S2013ROJO      MVJAE8904274                  9BFZB55N6E8904274                                                                                                       ALVEAR Y GABOTO          CRIA 21º DCIA 2032 P.A 18FISCALIA EN TUR               2022050620220516MVJAE8904274                  9BFZB55N6E8904274             CRIA 21º DCIA 2032 P.A 182022051621202305171                                                                                                                                                                       
A        20220507ARAUTOMOVIL           HYUNDAI             ACCENT    2014BLANCO    G4LCDU114781                  KMHCT41BAEU618047                                                                                                       GALVEZ Y PUEYRREDON      CRIA 5 D/1131 PA 1892 SOFFISCALIA EN TUR               2022050720220516G4LCDU114781                  KMHCT41BAEU618047             CRIA 5 D/1131 PA 1892 SOF2022051621202305171                                                                                                                                                                       
M411KMC  20220512ARMOTOCICLETA         HONDA WAVE          WAVE      2014BORDO     SDH1P50FMH2D5856994           8CHPCHK00EL035888                                                                                                       J.J.PASO Y CABILDO       CRIA 21º DCIA 2143 P.A 19FISCALIA EN TUR               2022051220220516SDH1P50FMH2D5856994           8CHPCHK00EL035888             CRIA 21º DCIA 2143 P.A 192022051621202305171                                                                                                                                                                       
M821CKR  20220514ARMOTOCICLETA         HONDA               NXR 125CC 2004BLANCO Y RJC30E84501710                 9C2JD20104R501710                                                                                                       PTE ROCA 2808            CRIA 5º DCIA 1208 P.A 201FISCALIA EN TUR               2022051420220516JC30E84501710                 9C2JD20104R501710             CRIA 5º DCIA 1208 P.A 2012022051621202305171                                                                                                                                                                       
ADMO914  20220514ARAUTOMOVIL           VOLKSWAGEN          GOL 1.9   2000GRIS      1Y813532                      8AWZZZ5XZYA113159                                                                                                       ABORIGENES ARGENTINOS Y LCRIA 19 URII DCIA 1317 OFFISCALIA FLAGRA               20220514202205161Y813532                      8AWZZZ5XZYA113159             CRIA 19 URII DCIA 1317 OF2022051621202305171                                                                                                                                                                       
MA084PNH 20220515ARMOTOCICLETA         ZANELLA             SIN DATOS 2018BLANCO    LC157QMJH6676887              8A6SAHCXZKC440050                                                                                                       AYACUCHO AL 1200 VIA PUBLCRIA 2º UR II DCIA 2795 OFLAGRANCIA EN T               2022051520220516LC157QMJH6676887              8A6SAHCXZKC440050             CRIA 2º UR II DCIA 2795 O2022051621202305171                                                                                                                                                                       
M209HQT  20220515ARMOTOCICLETA         HONDA               NX4 FALCON2011BORDO     ND07E-B511910                 9C2ND0700BR511910                                                                                                       VENADO TUERTO            CRIA 2DA                 FISCALIA REGION               2022051520220516ND07E-B511910                 9C2ND0700BR511910             CRIA 2DA                 2022051621202305171                                                                                                                                                                       
AUGK696  20220516ARAUTOMOVIL           FIAT UNO            UNO       1993ROJO      159A20388107736               8AS146000P5094037                                                                                                       PJE 1440 Nº 982 BIS      CRIA 17º DCIA 660 P.A 205FISCALIA EN TUR               2022051620220516159A20388107736               8AS146000P5094037             CRIA 17º DCIA 660 P.A 2052022051621202305171                                                                                                                                                                       


1- En Dominio si es Moto le pone M, si es Auto le pone A y otros vehiculos Q. (01 lugar - desc_vehi_sec).
2- Dominio - rellenar con espacios. Se le saca el/los guiones (para sacar guines usar traslate en postgres) (08 lugares - nro_patte_sec).
3- Fecha Robo - Sacar guiones (08 Lugares - fec_alt_sec)
4- Pais - Depende si es 1 (Argentina), 2, 3 o 4 cambia el pais (02 Lugares - pais_vehi_sec).
5- Depende al Tipo Vehiculo (desc_vehi_sec - Del 1 a 4 -> ingresar a su respectiva tabla y capturar su nombre) (20 Lugares)
6- Marca Vehiculo -> ingresar por foragnea y capturar nombre (completa con especios en blanco)  (20 Lugares - marc_vehi_sec)
7- Modelo -> ingresar por foranea cod_modelo y capturar nombre (completa con especios en blanco)  (10 Lugares - mode_vehi_sec)
8- Anio -> rellenar con 0 a la izquierda (04 Lugares - ano_vehi_sec) 
9- Color -> ingresar por foranea codigo y capturar nombre (completa con espacios en blanco)  (10 Lugares - colo_vehi_sec) 
10- Motor -> se completa con espacios en blanco (30 Lugares - nro_motor_sec) 
11- Chasis -> se completa con espacios en blanco (30 Lugares - nro_chasis_sec)  
12- Damnificado Nombre (completa con espacios en blanco) -> ingresar por foranea nro_ficha y capturar nombre  (25 Lugares - nro_ficha_sec)
13- Damnificado Telefono (completa con espacios en blanco) -> ingresar por foranea nro_ficha y capturar telefono  (15 Lugares - nro_ficha_sec)
14- Damnificado domicilio (completa con espacios en blanco) -> ingresar por foranea nro_ficha y capturar domicilio  (25 Lugares - nro_ficha_sec)
15- Delito se completa todo con espacios en blanco (25 Lugares)
16- Lugar del Hecho (25 Lugares - lugar_hech_sec)
17- Dependencia (25 Lugares - depen_hech_sec)
18- Juez (completa con especios en blanco) (15 Lugares - juez_intr_sec)
19- Secretaria (completa con especios en blanco) (15 Lugares - secr_intr_sec)                   
20- Fecha Alta Secuestro - Sacar Guiones (08 Lugares - fec_alt_sec)   
21- Fecha sin Efecto -> si no tiene S.E. se llena con 00000000 - (08 Lugares - deleted_at)  
22- Motor sin Efecto -> si no tiene S.E. se llena con espacios en blanco - (30 Lugares - nro_motor_sec) 
23- Chasis sin Efecto -> si no tiene S.E. se llena con espacios en blanco - (30 Lugares - nro_chasis_sec) 
24- Dependencia sin Efecto -> si no tiene S.E. se llena con espacios en blanco - (25 Lugares - depen_hech_sec) 
25- Fecha Carga sin Efecto -> si no tiene S.E. se llena con 00000000 en blanco - (08 Lugares - fec_alt_sec)  
26- Origen -> esta seteado el N° 21 (en tabla de Unidades Regionales, el Codigo 21 es "Informatica") (02 Lugares) 
27- Es la fecha en que se corre el proceso - Sacar Guiones (08 Lugares) 
28- Procesado -> esta seteado el N° 1  (01 Lugar) 