AMFA410  20201221ARAUTOMOVIL           FORD                ECOSPORT  2013GRIS PLATAMVJAD8795342                  9BFZB55N0D8795342                                                                                                       SANCHEZ DE BUSTAMANTE Y PCRIA 15 D/5695 PA 4441 SOFISCALIA EN TUR               2020122100000000                                                                                     0000000021202307111
AOZK978  20201221ARFURGON              IVECO               SIN DATOS 2015ROJO      7234636                       93ZK53B01G8345442                                                                                                       MARCOS PAZ 3500          CRIA 7 D/2210 PA 4442 SOFFISCALIA EN TUR               2020122100000000                                                                                     0000000021202307111
MA113NDC 20201221ARMOTOVEHICULO        HONDA               WAVE      2019BLANCO    JA37E3907466                  8CHJA3700LP011694                                                                                                       SAN LUIS 4196            CRIA 7 D/2206 PA 4443 SOFFISCALIA EN TUR               2020122100000000                                                                                     0000000021202307111
MA005DDP 20201221ARMOTOVEHICULO        BAJAJ               ROUSER    2016AMARILLA YJLZCFH87209                   8CVA55FZ8GA001140                                                                                                       ALSINA 1710              CRIA 19 D/S/N PA 4444 DESFISCALIA EN TUR               2020122100000000                                                                                     0000000021202307111
MA074PFK 20201221ARMOTO                MOTOMEL             250 C.C.  2018NEGRO     H002892                       8ELM25250HB002892                                                                                                       12 DE SEPTIEMBRE Y AZCUENCRIA DTTO 23 URI         FISC EN TURNO 2               2020122100000000                                                                                     0000000021202307111
AHSA412  20201221ARAUTOMOVIL           RENAULT             CLIO 3P   2008AZUL OSCURD4FG728Q058901                8A1CB270F9L164668                                                                                                       27 DE FEBRERO ENTRE ALEM CRIA.15 D/5704 PA4446 S.OFISCALIA EN TUR               2020122100000000                                                                                     0000000021202307111
M272LOU  20201221ARMOTO                GILERA              SMASH     2016GRIS      AD1P50FMHG0048221             8CXSMASHFGGC02250                                                                                                       SAN MARTIN Y CRESPO      SECCIONAL 1 URI          FISC EN TURNO 2               2020122100000000                                                                                     0000000021202307111
M398LNB  20201221ARSIN DATOS           GUERRERO            TRIP      0000ROJO      AD1P52FMHG0014964             8A2XCHLLXFA083847                                                                                                       SAN MARTIN 1225          COMISARIA PRIMERA UR IX  MPA                           2020122100000000                                                                                     0000000021202307111
M898LNF  20201221ARMOTO                CORVEN              110 CC.   2016NEGRO     1P52FMHE1049234               8CVXCH2G3EA068165                                                                                                       PJE KOCH 1416            SECCIONAL 8 URI          FISC EN TURNO 2               2020122100000000                                                                                     0000000021202307111
MA117HIN 20201216ARMOTO                HONDA               WAVE      2020NEGRO     JA37E3904091                  8CHJA5000LP001229                                                                                                       RIVADAVIA 3700           SUBCRIA 9 URI            FISC EN TURNO 1               2020121620201221JA37E3904091                  8CHJA5000LP001229             SUBCRIA 9 URI            2020121921202307111
MA035MBK 20201220ARMOTO                CORVEN              110 CC.   2017AZUL      1P52FMHH8105424               8CVXCH2G2HA150988                                                                                                       CASTELLI Y LAS HERAS     SECCIONAL 5 URI          FISC EN TURNO 1               2020122000000000                                                                                     0000000021202307111
MA085GFE 20201220ARMOTO                GILERA              SMASH     2018BLANCO    AD1P52FMHJ0033029             8CXSMASHSJVS00289                                                                                                       PJE ECHEVERRIA 6660      SECCIONAL 9 URI          FISC EN TURNO 2               2020122000000000                                                                                     0000000021202307111
M850EVX  20201220ARMOTOCICLETA         HONDA               WAVE      2009BORDO     SDH150FMG285843752            8CHPCGB219L101039                                                                                                       SANTA FE Y FELIPE MORE   CRIA 12 SOF MOLINA       FISCALIA EN TUR               2020122000000000                                                                                     0000000021202307111
M474JZX  20201220ARMOTO                ZANELLA             ZB 110 CC.2013ROJO      1P52FMHD1349958               8A6MBSCACEC300561                                                                                                       PJE PARPAL Y JUAN DIAZ DESECCIONAL 9 URI          FISC EN TURNO 2               2020122000000000                                                                                     0000000021202307111
M648DVP  20201221ARMOTO                CERRO               110 CC.   2008NEGRO     1P52FMH08014124               LRYXCHLA486012934                                                                                                       MATHEU 1951              SECCIONAL 8 URI          FISC EN TURNO 2               2020122100000000                                                                                     0000000021202307111
M691LBL  20201221ARMOTO                HONDA               CB1       2015ROJO      SDH152FMI3E3052444            8CHPCJ0E1EL007157                                                                                                       FLORENCIO FERNANDEZ 5975 SUBCRIA 17 URI           FISC EN TURNO 2               2020122100000000                                                                                     0000000021202307111
M541FAI  20201221ARMOTO                MOTOMEL             110 CC.   2010AZUL      9023415                       8ELM151109B023415                                                                                                       PADRE GENESIO 3947       SUBCRIA 3 URI            FISC EN TURNO 2               2020122100000000                                                                                     0000000021202307111
MA128UWK 20201221ARMOTO                KEEWAY              200 CC.   2020NEGRO     QJ164FML0243173               8ELK05AHALB025758                                                                                                       FRANCIA 1236             SECCIONAL 2 URI          FISC EN TURNO 2               2020122100000000                                                                                     0000000021202307111
AILL509  20201221ARAUTOMOVIL           VOLKSWAGEN          GOL 1.6   2009BLANCO    UNF627703                     9BWCB05W6AP051523                                                                                                       VENADO TUERTO            CRIA 2DA                 FISCALIA REGION               2020122100000000                                                                                     0000000021202307111
AELX875  20201221ARAUTOMOVIL           CHEVROLET           CORSA CLAS2004VERDE     7H5017636                     8AGSB19N04R141725                                                                                                       CERVANTES 29 BIS         CRIA 25 D/981 PA 4440 SINFISCALIA EN TUR               2020122100000000                                                                                     0000000021202307111
M210LGI  20201221ARSIN DATOS           CORVEN              ENERGY    0000ROJO      1P52FMHF1293166               8CVXCH2G9FA094710                                                                                                       MPA                      COMISARIA SEGUNDA UR IX  MPA                           2020122100000000                                                                                     0000000021202307111
MA005ZHL 20201201ARMOTO                HONDA               CG        2016NEGRO     KC08E2G166801                 8CHKC2110GL018148             GAMARRA NICOLAS                         ALMONACID 4755                                    ALMONACID 4755           SUBCRIA 14 URI           FISC EN TURNO 0               2020120120201221KC08E2G166801                 8CHKC2110GL018148             SUBCRIA 14 URI           2020122121202307111
M922LOX  20201220ARMOTOCICLETA         SUZUKI              AX 100 CC 2016NEGRO     1E50FMGA5D25873               8ESS01100GB014463                                                                                                       VELEZ SARFIELD Y FORMOSA CRIA 12 SUBOFICIAL MOLINA                              2020122000000000                                                                                     0000000021202307111
AGQE489  20190618ARAUTOMOVIL           PEUGEOT             307       2007NEGRO     10DBUD0001922                 8AD3CN6BL8G024820                                                                                                       SAN FRANCISCO CORDOBA    SUBCRIA 15 URI           FISCALIA EN TUR               201906182020122110DBUD0001922                 8AD3CN6BL8G024820             SUBCRIA 15 URI           2020121421202307111
MA051AJK 20201220ARMOTO                GUERRERO            G100      2017ROJO      AD1P52FMHH0080089             8A2XCHLL0HA101937                                                                                                       VIEYTES Y MITRE          SECCIONAL 8 URI          FISC EN TURNO 1               2020122000000000                                                                                     0000000021202307111
MA060XJL 20201221ARMOTO                GUERRERO            G100      2017GRIS      AD1P52FMHJ0020488             8A2XCHLL4HA105375                                                                                                       BERUTI Y MENCHACA        SUBCRIA 12 URI           FISC EN TURNO 2               2020122100000000                                                                                     0000000021202307111
M121JZC  20201221ARMOTO                GUERRERO            G100      2013NEGRO     KT1P52FMHE0010877             8A2XCHLM3DA080763                                                                                                       BELGRANO 3881            SUBCRIA 9 URI            FISC EN TURNO 2               2020122100000000                                                                                     0000000021202307111
MA124GUX 20201221ARMOTOCICLETA         HONDA               WAVE 100 C2020NEGRO     JA37E3501448                  8CHJA5010MP001156                                                                                                       PTE. ROCA 1297           CRIA. 1RA. U.R. XVII     FISCALIA REGION               2020122100000000                                                                                     0000000021202307111
MA124HTU 20201221ARMOTOCICLETA         YAMAHA              YBR 125 CC2020BORDO Y NEE3H6E123285                   8C6KE1692L0059544                                                                                                       IRIONDO Y CENTENO        CRIA.21 D/5474 PA 4447 S.FISCALIA DE TUR               2020122100000000                                                                                     0000000021202307111
MA060ZVN 20201220ARMOTO                YAMAHA              YBR 125 CC2017BLANCO    E3H6E117177                   8C6KE1694H0052425                                                                                                       GDOR FREYRE Y HERNANDARIASECCIONAL 9 URI          FISC EN TURNO 2               2020122000000000                                                                                     0000000021202307111
M398IKS  20201220ARMOTOCICLETA         MAVERICK            250CC     2000ROJO      167FMM8B400489                8DM5DB2S0BS000358                                                                                                       VILLA CONSTITUCION       COMISARIA 13 UR VI       MPA REGIONAL II               2020122000000000                                                                                     0000000021202307111
AAC506AS 20201221ARAUTOMOVIL           FIAT                SIN DATOS 2018NEGRO     552616748232745               988226465JKB65404                                                                                                       GARZON AL 1000           CRIA 14 D/1589 PA 4439 OFFISCALIA EN TUR               2020122100000000                                                                                     0000000021202307111
M513HRZ  20201221ARMOTOCICLETA         MONDIAL             LD 110 H  2011NEGRO     1P52FMHA1004790               LF3XCH2G1AA000116                                                                                                       VENADO TUERTO            CRIA 2DA                 FISCALIA 3 CIRC               2020122100000000                                                                                     0000000021202307111
M803HLG  20201221ARMOTOVEHICULO        HONDA               WAVE      2011NEGRO     SDH150FMG2B5800305            8CHPCGB21BL011984                                                                                                       PASCO Y COLECTORA        CRIA 32 D/ S/N PA 4445 DEFISCALIA EN TUR               2020122100000000                                                                                     0000000021202307111
