AAE321ES 20221120ARAUTOMOVIL           VOLKSWAGEN          GOL TREND 0000ROJO      CFZU53774                     9BWAB45UZLT116567                                                                                                       VILLA CAÑAS              CRIA 6TA                 MPA VDO TTO                   2022112000000000                                                                                     0000000021202305091                                                                                                                                                                       
MA143LDY 20221120ARMOTOCICLETA         ZANELLA             ZB 110 CC.0000BORDO     1P52FMHM3062742               8A6XBSB06MA009912                                                                                                       PASAJE LA VICTORIA 1307  CRIA 2DA                 FISCALIA REGION               2022112000000000                                                                                     0000000021202305091                                                                                                                                                                       
MA075DGV 20221120ARMOTOCICLETA         BRAVA               NEVADA 1102018AZUL Y NEGRW152FMH180100218             8DYC1107DJV079823                                                                                                       BARRA AL 1900 VIA PUBLICACRIA 19º UR II DCIA 3467 FLAGRANCIA EN T               2022112000000000                                                                                     0000000021202305091                                                                                                                                                                       
MA149KTE 20221120ARMOTOCICLETA         HONDA WAVE          WAVE 110 S2021BLANCO    JA37E3532626                  8CHJA5010MP028096                                                                                                       RIOBAMBA Y SOLIS VIA PUBLCRIA 19º UR II DCIA 3468 FLAGRANCIA EN T               2022112000000000                                                                                     0000000021202305091                                                                                                                                                                       
MA171CCD 20221120ARMOTOCICLETA         HONDA WAVE          WAVE 110 S2022NEGRO     JA37E3578371                  8CHJA5010NP039430                                                                                                       ECHEVERRIA AL 500 VIA PUBCRIA 9º UR II DCIA 1839 OFLAGRANCIA EN T               2022112000000000                                                                                     0000000021202305091                                                                                                                                                                       
MA100AAO 20221120ARMOTOCICLETA         HONDA WAVE          WAVE 110 S2019ROJO      JA37E3869693                  8CHJA3700KP013492                                                                                                       VENEZUELA 114 BIS VIA PUBCRIA 17º UR II DCIA 1551 FLAGRANCIA EN T               2022112000000000                                                                                     0000000021202305091                                                                                                                                                                       
M569HUC  20221120ARMOTOCICLETA         KELLER              KN110-8   0000ROJA      KN152FMH11061271              8E71CDA79B0026369                                                                                                       ITURBIDE 1139            CRIA 12DA                MPA VDO TTO                   2022112000000000                                                                                     0000000021202305091                                                                                                                                                                       
AIZS562  20221120ARSEDAN 4 PUERTAS     CHEVROLET           AVEO 1.6  2010GRIS OSCURF16D35779321                  3G1TA5A61AL137911                                                                                                       ALVEAR AL 3000 VIA PUBLICCRIA 29º UR II DCIA 931 OFLAGRANCIA EN T               2022112000000000                                                                                     0000000021202305091                                                                                                                                                                       
AEDJ902  20221120ARPICK UP             FORD                RANGER    2003GRIS METALB61612421                     8AFER12F33J315336                                                                                                       RICCHIERI Y PELLEGRINI VICRIA 7º UR II DCIA 2940 OFLAGRANCIA EN T               2022112000000000                                                                                     0000000021202305091                                                                                                                                                                       
MA131BNF 20221120ARMOTOCICLETA         HONDA               CG 150CC T2021NEGRO     KC08E2M000936                 8CHKC2120MP001811                                                                                                       RUTA 21 Y PLAYA HERMOSA VCRIA 27º UR II DCIA 1614 FLAGRANCIA EN T               2022112000000000                                                                                     0000000021202305091                                                                                                                                                                       
AUFU586  20221120ARSIN DATOS           RENAULT             RENAULT 111992CELESTE   5821227                       B374000725                                                                                                              DORREGO AL 2000 VIA PUBLICRIA 5º UR II DCIA 2891 OFLAGRANCIA EN T               2022112000000000                                                                                     0000000021202305091                                                                                                                                                                       
MA142UAY 20221120ARMOTOCICLETA         HONDA               CG 150CC T2021BLANCO    KC08E2M003268                 8CHKC2120MP004241                                                                                                       PASCO AL 1200 VIA PUBLICACRIA 5º UR II DCIA 2892 OFLAGRANCIA EN T               2022112000000000                                                                                     0000000021202305091                                                                                                                                                                       
MA079RXS 20221120ARMOTOCICLETA         ZANELLA             ZB 110 D. 2018AZUL Y GRILF1P52FMHJ1183648             8A7XCGB0XJM104313                                                                                                       OV. LAGOS AL 6400 VIA PUBCRIA 21º UR II DCIA 5166 FLAGRANCIA EN T               2022112000000000                                                                                     0000000021202305091                                                                                                                                                                       
MA138DRX 20221120ARMOTOCICLETA         HONDA WAVE          WAVE 110 S2021NEGRO     JA37E3510321                  8CHJA5010MP008613                                                                                                       EUDORO CARRASCO Y GALLO VSUB CRIA 27º UR II DCIA 1FLAGRANCIA EN T               2022112000000000                                                                                     0000000021202305091                                                                                                                                                                       
AEFX387  20221120ARSEDAN 4 PUERTAS     VOLKSWAGEN          POLO      2003GRIS PLOMO1Y951402                      8AWZZZ9EZ4A662417                                                                                                       LAVALLE Y ALBERDI VIA PUBCRIA 22º UR II DCIA 1014 FLAGRANCIA EN T               2022112000000000                                                                                     0000000021202305091                                                                                                                                                                       
M130IXR  20221120ARMOTOCICLETA         APPIA               CITIPLUS 12012BORDO     DY152FMHC1289249              8BPC4DLB2CC051368                                                                                                       PROVINCIAS UNIDAS AL 600 CRIA 20º UR II DCIA 1402 FLAGRANCIA EN T               2022112000000000                                                                                     0000000021202305091                                                                                                                                                                       
MA112DBA 20221120ARMOTOCICLETA         GUERRERO            GC 150    2019NEGRO     AD162FMJJ0065264              8A2XCKLC4KA003224                                                                                                       JUAN JOSE PASO Y VICTOR CCRIA 20º UR II DCIA 1405 FLAGRANCIA EN T               2022112000000000                                                                                     0000000021202305091                                                                                                                                                                       
M648JEA  20221121ARMOTOCICLETA         HONDA               WAVE      2013NEGRA     SDH150FMG-2C5849549           8CHPCGB21DL026468                                                                                                       SAN GWNARO               CRIA 6 TA SAN GENARO UR X                              2022112100000000                                                                                     0000000021202305091                                                                                                                                                                       
AREI281  20221121ARSEDAN 4 PUERTAS     RENAULT             4S        1972CELESTE   5115762                       90808182                                                                                                                MENDOZA 621              CRIA 2 SUBINSP GOROSITO DTURNO                         2022112100000000                                                                                     0000000021202305091                                                                                                                                                                       
MA173CAN 20221121ARMOTOCICLETA         HONDA               WAVE      2022NEGRO     JA37E3588789                  8CHJA5010NP047140                                                                                                       ECHEVERRIA 95            CRIA 9 OF PEREZ DCIA 1843TURNO                         2022112100000000                                                                                     0000000021202305091                                                                                                                                                                       
ALXG653  20221121ARSEDAN 4 PUERTAS     PEUGEOT             207       2012BEIGE CHAM10FDBU3028959                 8AD2M8HZMDG053952                                                                                                       EMILIO ZOLA 2566         CRIA 26 SUBINSP GARCIA DCDRA LOPEZ FISCA               2022112100000000                                                                                     0000000021202305091                                                                                                                                                                       
MA010EWK 20221121ARMOTOCICLETA         CORVEN              ENERGY 1252016ROJO      1P52FMIFF053238               8CVPCJT28GA009240                                                                                                       LEDESMA 480 RECONQUISTA  SECCIONAL 1° UR.IX       M.P.A. C.J  N° DE TURNO       2022112100000000                                                                                     0000000021202305091                                                                                                                                                                       
ARPD811  20221121ARSEDAN 4 PUERTAS     PEUGEOT             405       1994BLANCO    10CTH21003992                 VF34BB2A271320985                                                                                                       MORENO 170               SUBCRIA 18 OF GARCIA DCIATURNO                         2022112100000000                                                                                     0000000021202305091                                                                                                                                                                       
MA069FMA 20221121ARMOTOCICLETA         BENELLI             300       0000NEGRA     BJ265MN-A*78514079*           8ELB03AKAHB107515                                                                                                       STRENITZ 875             CRIA 2DA                 FISCALIA REGION               2022112100000000                                                                                     0000000021202305091                                                                                                                                                                       
AAE321ES 20221120ARAUTOMOVIL           VOLKSWAGEN          GOL TREND 0000ROJO      CFZU53774                     9BWAB45UZLT116567                                                                                                       VILLA CAÑAS              CRIA 6TA                 MPA VDO TTO                   2022112000000000                                                                                     0000000021202305091                                                                                                                                                                       
AEYG713  20120824ARCAMIONETA           FORD                RANGER    2005CHAMPAGNE 036177655                     8AFDR12F25J422053                                                                                                       NECOCHEA S/N ZONA RURAL  CRIA 27º PARTE PVO Nº 837JD DE INSTRUCCI               2012082420221121036177655                     8AFDR12F25J422053             CRIA 27º PARTE PVO Nº 8372022112121202305091                                                                                                                                                                       
MA013KPN 20220124ARMOTOCICLETA         ZANELLA             DUE       2016AZUL Y GRIWQ1P52FMHG1028881             8A6MBSVCZHC500205                                                                                                       PJE 525 EX GUILLERMO THELSUB CRIA 20º DCIA 039 P.AFISCALIA EN TUR               2022012420221121WQ1P52FMHG1028881             8A6MBSVCZHC500205             SUB CRIA 20º DCIA 039 P.A2022112121202305091                                                                                                                                                                       
MA011UOQ 20220124ARMOTOCICLETA         MOTOMEL             B110      2016NEGRO     G024196                       8ELM15110GB024196                                                                                                       EVA PERON Y CHACABUCO    CRIA 24 OF GUTIERREZ DCIAEN TURNO                      2022012420221121G024196                       8ELM15110GB024196             CRIA 24 OF GUTIERREZ DCIA2022112121202305091                                                                                                                                                                       
M974KQT  20220912ARMOTOCICLETA         HONDA               BIZ 125   2014BLANCO Y NJA04E4E004436                 8CHJA0430EP006293                                                                                                       DR MEDINA 4759           CRIA 19º DCIA 2385 P.A 37FISCALIA EN TUR               2022091220221121JA04E4E004436                 8CHJA0430EP006293             CRIA 19º DCIA 2385 P.A 372022112121202305091                                                                                                                                                                       
M261CMV  20221023ARMOTOCICLETA         HONDA               125 CC.   2005SIN DATOS JC30E45500389                 9C2JC30405R500389                                                                                                       MELIAN Y BALCARCE        CRIA 21 URII DCIA 4744 SIFISCALIA FLAGRA               2022102320221121JC30E45500389                 9C2JC30405R500389             CRIA 21 URII DCIA 4744 SI2022112121202305091                                                                                                                                                                       
MA128UNI 20221101ARMOTOCICLETA         YAMAHA              FZ-S FI   2021BORDO     G3F6E0046597                  8C6RG2450M0000931                                                                                                       MENDOZA 501              CRIA 2 URII DCIA 7487 SI FISCALIA FLAGRA               2022110120221121G3F6E0046597                  8C6RG2450M0000931             CRIA 2 URII DCIA 7487 SI 2022112121202305091                                                                                                                                                                       
AAC527DA 20221120ARAUTOMOVIL           PEUGEOT             208 ALLURE0000GRIS                                                                                                                                                                                     MPA MELINCUE             MPA MELINCUE                  2022112020221121                                                            MPA MELINCUE             2022112121202305091                                                                                                                                                                       
